{"abi":[{"type":"constructor","inputs":[{"name":"_manager","type":"address","internalType":"contract IPoolManager"},{"name":"initialPoolFee_","type":"uint24","internalType":"uint24"},{"name":"feePercentageForPrize_","type":"uint24","internalType":"uint24"}],"stateMutability":"nonpayable"},{"type":"function","name":"accumulatedPrize","inputs":[{"name":"poolId","type":"bytes32","internalType":"PoolId"},{"name":"","type":"address","internalType":"address"}],"outputs":[{"name":"","type":"uint256","internalType":"uint256"}],"stateMutability":"view"},{"type":"function","name":"afterAddLiquidity","inputs":[{"name":"","type":"address","internalType":"address"},{"name":"","type":"tuple","internalType":"struct PoolKey","components":[{"name":"currency0","type":"address","internalType":"Currency"},{"name":"currency1","type":"address","internalType":"Currency"},{"name":"fee","type":"uint24","internalType":"uint24"},{"name":"tickSpacing","type":"int24","internalType":"int24"},{"name":"hooks","type":"address","internalType":"contract IHooks"}]},{"name":"","type":"tuple","internalType":"struct IPoolManager.ModifyLiquidityParams","components":[{"name":"tickLower","type":"int24","internalType":"int24"},{"name":"tickUpper","type":"int24","internalType":"int24"},{"name":"liquidityDelta","type":"int256","internalType":"int256"},{"name":"salt","type":"bytes32","internalType":"bytes32"}]},{"name":"","type":"int256","internalType":"BalanceDelta"},{"name":"","type":"int256","internalType":"BalanceDelta"},{"name":"","type":"bytes","internalType":"bytes"}],"outputs":[{"name":"","type":"bytes4","internalType":"bytes4"},{"name":"","type":"int256","internalType":"BalanceDelta"}],"stateMutability":"nonpayable"},{"type":"function","name":"afterDonate","inputs":[{"name":"","type":"address","internalType":"address"},{"name":"","type":"tuple","internalType":"struct PoolKey","components":[{"name":"currency0","type":"address","internalType":"Currency"},{"name":"currency1","type":"address","internalType":"Currency"},{"name":"fee","type":"uint24","internalType":"uint24"},{"name":"tickSpacing","type":"int24","internalType":"int24"},{"name":"hooks","type":"address","internalType":"contract IHooks"}]},{"name":"","type":"uint256","internalType":"uint256"},{"name":"","type":"uint256","internalType":"uint256"},{"name":"","type":"bytes","internalType":"bytes"}],"outputs":[{"name":"","type":"bytes4","internalType":"bytes4"}],"stateMutability":"nonpayable"},{"type":"function","name":"afterInitialize","inputs":[{"name":"","type":"address","internalType":"address"},{"name":"key","type":"tuple","internalType":"struct PoolKey","components":[{"name":"currency0","type":"address","internalType":"Currency"},{"name":"currency1","type":"address","internalType":"Currency"},{"name":"fee","type":"uint24","internalType":"uint24"},{"name":"tickSpacing","type":"int24","internalType":"int24"},{"name":"hooks","type":"address","internalType":"contract IHooks"}]},{"name":"","type":"uint160","internalType":"uint160"},{"name":"","type":"int24","internalType":"int24"}],"outputs":[{"name":"","type":"bytes4","internalType":"bytes4"}],"stateMutability":"nonpayable"},{"type":"function","name":"afterRemoveLiquidity","inputs":[{"name":"","type":"address","internalType":"address"},{"name":"","type":"tuple","internalType":"struct PoolKey","components":[{"name":"currency0","type":"address","internalType":"Currency"},{"name":"currency1","type":"address","internalType":"Currency"},{"name":"fee","type":"uint24","internalType":"uint24"},{"name":"tickSpacing","type":"int24","internalType":"int24"},{"name":"hooks","type":"address","internalType":"contract IHooks"}]},{"name":"","type":"tuple","internalType":"struct IPoolManager.ModifyLiquidityParams","components":[{"name":"tickLower","type":"int24","internalType":"int24"},{"name":"tickUpper","type":"int24","internalType":"int24"},{"name":"liquidityDelta","type":"int256","internalType":"int256"},{"name":"salt","type":"bytes32","internalType":"bytes32"}]},{"name":"","type":"int256","internalType":"BalanceDelta"},{"name":"","type":"int256","internalType":"BalanceDelta"},{"name":"","type":"bytes","internalType":"bytes"}],"outputs":[{"name":"","type":"bytes4","internalType":"bytes4"},{"name":"","type":"int256","internalType":"BalanceDelta"}],"stateMutability":"nonpayable"},{"type":"function","name":"afterSwap","inputs":[{"name":"","type":"address","internalType":"address"},{"name":"","type":"tuple","internalType":"struct PoolKey","components":[{"name":"currency0","type":"address","internalType":"Currency"},{"name":"currency1","type":"address","internalType":"Currency"},{"name":"fee","type":"uint24","internalType":"uint24"},{"name":"tickSpacing","type":"int24","internalType":"int24"},{"name":"hooks","type":"address","internalType":"contract IHooks"}]},{"name":"","type":"tuple","internalType":"struct IPoolManager.SwapParams","components":[{"name":"zeroForOne","type":"bool","internalType":"bool"},{"name":"amountSpecified","type":"int256","internalType":"int256"},{"name":"sqrtPriceLimitX96","type":"uint160","internalType":"uint160"}]},{"name":"","type":"int256","internalType":"BalanceDelta"},{"name":"","type":"bytes","internalType":"bytes"}],"outputs":[{"name":"","type":"bytes4","internalType":"bytes4"},{"name":"","type":"int128","internalType":"int128"}],"stateMutability":"nonpayable"},{"type":"function","name":"beforeAddLiquidity","inputs":[{"name":"","type":"address","internalType":"address"},{"name":"","type":"tuple","internalType":"struct PoolKey","components":[{"name":"currency0","type":"address","internalType":"Currency"},{"name":"currency1","type":"address","internalType":"Currency"},{"name":"fee","type":"uint24","internalType":"uint24"},{"name":"tickSpacing","type":"int24","internalType":"int24"},{"name":"hooks","type":"address","internalType":"contract IHooks"}]},{"name":"","type":"tuple","internalType":"struct IPoolManager.ModifyLiquidityParams","components":[{"name":"tickLower","type":"int24","internalType":"int24"},{"name":"tickUpper","type":"int24","internalType":"int24"},{"name":"liquidityDelta","type":"int256","internalType":"int256"},{"name":"salt","type":"bytes32","internalType":"bytes32"}]},{"name":"","type":"bytes","internalType":"bytes"}],"outputs":[{"name":"","type":"bytes4","internalType":"bytes4"}],"stateMutability":"nonpayable"},{"type":"function","name":"beforeDonate","inputs":[{"name":"","type":"address","internalType":"address"},{"name":"","type":"tuple","internalType":"struct PoolKey","components":[{"name":"currency0","type":"address","internalType":"Currency"},{"name":"currency1","type":"address","internalType":"Currency"},{"name":"fee","type":"uint24","internalType":"uint24"},{"name":"tickSpacing","type":"int24","internalType":"int24"},{"name":"hooks","type":"address","internalType":"contract IHooks"}]},{"name":"","type":"uint256","internalType":"uint256"},{"name":"","type":"uint256","internalType":"uint256"},{"name":"","type":"bytes","internalType":"bytes"}],"outputs":[{"name":"","type":"bytes4","internalType":"bytes4"}],"stateMutability":"nonpayable"},{"type":"function","name":"beforeInitialize","inputs":[{"name":"","type":"address","internalType":"address"},{"name":"key","type":"tuple","internalType":"struct PoolKey","components":[{"name":"currency0","type":"address","internalType":"Currency"},{"name":"currency1","type":"address","internalType":"Currency"},{"name":"fee","type":"uint24","internalType":"uint24"},{"name":"tickSpacing","type":"int24","internalType":"int24"},{"name":"hooks","type":"address","internalType":"contract IHooks"}]},{"name":"","type":"uint160","internalType":"uint160"}],"outputs":[{"name":"","type":"bytes4","internalType":"bytes4"}],"stateMutability":"pure"},{"type":"function","name":"beforeRemoveLiquidity","inputs":[{"name":"","type":"address","internalType":"address"},{"name":"","type":"tuple","internalType":"struct PoolKey","components":[{"name":"currency0","type":"address","internalType":"Currency"},{"name":"currency1","type":"address","internalType":"Currency"},{"name":"fee","type":"uint24","internalType":"uint24"},{"name":"tickSpacing","type":"int24","internalType":"int24"},{"name":"hooks","type":"address","internalType":"contract IHooks"}]},{"name":"","type":"tuple","internalType":"struct IPoolManager.ModifyLiquidityParams","components":[{"name":"tickLower","type":"int24","internalType":"int24"},{"name":"tickUpper","type":"int24","internalType":"int24"},{"name":"liquidityDelta","type":"int256","internalType":"int256"},{"name":"salt","type":"bytes32","internalType":"bytes32"}]},{"name":"","type":"bytes","internalType":"bytes"}],"outputs":[{"name":"","type":"bytes4","internalType":"bytes4"}],"stateMutability":"nonpayable"},{"type":"function","name":"beforeSwap","inputs":[{"name":"sender","type":"address","internalType":"address"},{"name":"key","type":"tuple","internalType":"struct PoolKey","components":[{"name":"currency0","type":"address","internalType":"Currency"},{"name":"currency1","type":"address","internalType":"Currency"},{"name":"fee","type":"uint24","internalType":"uint24"},{"name":"tickSpacing","type":"int24","internalType":"int24"},{"name":"hooks","type":"address","internalType":"contract IHooks"}]},{"name":"params","type":"tuple","internalType":"struct IPoolManager.SwapParams","components":[{"name":"zeroForOne","type":"bool","internalType":"bool"},{"name":"amountSpecified","type":"int256","internalType":"int256"},{"name":"sqrtPriceLimitX96","type":"uint160","internalType":"uint160"}]},{"name":"","type":"bytes","internalType":"bytes"}],"outputs":[{"name":"","type":"bytes4","internalType":"bytes4"},{"name":"","type":"int256","internalType":"BeforeSwapDelta"},{"name":"","type":"uint24","internalType":"uint24"}],"stateMutability":"nonpayable"},{"type":"function","name":"feePercentageForPrize","inputs":[],"outputs":[{"name":"","type":"uint24","internalType":"uint24"}],"stateMutability":"view"},{"type":"function","name":"getHookPermissions","inputs":[],"outputs":[{"name":"","type":"tuple","internalType":"struct Hooks.Permissions","components":[{"name":"beforeInitialize","type":"bool","internalType":"bool"},{"name":"afterInitialize","type":"bool","internalType":"bool"},{"name":"beforeAddLiquidity","type":"bool","internalType":"bool"},{"name":"afterAddLiquidity","type":"bool","internalType":"bool"},{"name":"beforeRemoveLiquidity","type":"bool","internalType":"bool"},{"name":"afterRemoveLiquidity","type":"bool","internalType":"bool"},{"name":"beforeSwap","type":"bool","internalType":"bool"},{"name":"afterSwap","type":"bool","internalType":"bool"},{"name":"beforeDonate","type":"bool","internalType":"bool"},{"name":"afterDonate","type":"bool","internalType":"bool"},{"name":"beforeSwapReturnDelta","type":"bool","internalType":"bool"},{"name":"afterSwapReturnDelta","type":"bool","internalType":"bool"},{"name":"afterAddLiquidityReturnDelta","type":"bool","internalType":"bool"},{"name":"afterRemoveLiquidityReturnDelta","type":"bool","internalType":"bool"}]}],"stateMutability":"pure"},{"type":"function","name":"initialPoolFee","inputs":[],"outputs":[{"name":"","type":"uint24","internalType":"uint24"}],"stateMutability":"view"},{"type":"function","name":"lastPrizeDrawTimestamp","inputs":[],"outputs":[{"name":"","type":"uint256","internalType":"uint256"}],"stateMutability":"view"},{"type":"function","name":"poolManager","inputs":[],"outputs":[{"name":"","type":"address","internalType":"contract IPoolManager"}],"stateMutability":"view"},{"type":"function","name":"unlockCallback","inputs":[{"name":"data","type":"bytes","internalType":"bytes"}],"outputs":[{"name":"","type":"bytes","internalType":"bytes"}],"stateMutability":"nonpayable"},{"type":"error","name":"HookNotImplemented","inputs":[]},{"type":"error","name":"InvalidPool","inputs":[]},{"type":"error","name":"LockFailure","inputs":[]},{"type":"error","name":"MustUseDynamicFee","inputs":[]},{"type":"error","name":"NotPoolManager","inputs":[]},{"type":"error","name":"NotSelf","inputs":[]}],"bytecode":{"object":"0x60a060405234801561000f575f80fd5b5060405161106e38038061106e83398101604081905261002e916102e5565b6001600160a01b0383166080528261004530610076565b506001805462ffffff92831663010000000265ffffffffffff19909116929093169190911791909117905550610332565b61016681610161604080516101c0810182525f80825260208201819052918101829052606081018290526080810182905260a0810182905260c0810182905260e08101829052610100810182905261012081018290526101408101829052610160810182905261018081018290526101a081019190915250604080516101c0810182526001808252602082018190525f928201839052606082018390526080820183905260a0820183905260c082015260e08101829052610100810182905261012081018290526101408101829052610160810182905261018081018290526101a081019190915290565b610169565b50565b805115156120008316151514158061018d5750602081015115156110008316151514155b806101a45750604081015115156108008316151514155b806101bb5750606081015115156104008316151514155b806101d25750608081015115156102008316151514155b806101e9575060a081015115156101008316151514155b806101ff575060c0810151151560808316151514155b80610215575060e0810151151560408316151514155b8061022c5750610100810151151560208316151514155b806102435750610120810151151560108316151514155b8061025a5750610140810151151560088316151514155b806102715750610160810151151560048316151514155b806102885750610180810151151560028316151514155b8061029f57506101a0810151151560018316151514155b156102b5576102b5630732d7b560e51b836102b9565b5050565b815f526001600160a01b03811660045260245ffd5b805162ffffff811681146102e0575f80fd5b919050565b5f805f606084860312156102f7575f80fd5b83516001600160a01b038116811461030d575f80fd5b925061031b602085016102ce565b9150610329604085016102ce565b90509250925092565b608051610d0f61035f5f395f818161036601528181610414015281816104cc01526105460152610d0f5ff3fe608060405234801561000f575f80fd5b5060043610610115575f3560e01c80639f063efc116100ad578063dc4c90d31161007d578063e1b4af6911610063578063e1b4af691461025f578063ea401c66146103b3578063f2e3e3dd146103c2575f80fd5b8063dc4c90d314610361578063dc98354e146103a0575f80fd5b80639f063efc146101c8578063b47b2fb11461022e578063b6a8b0fa1461025f578063c4e833ce1461026d575f80fd5b8063575e24b4116100e8578063575e24b41461018a5780636c2bbe7e146101c85780636fe7e6eb146101fb57806391dd73461461020e575f80fd5b80631b77e0721461011957806321d0ee7014610148578063259982e5146101485780632d85836b14610174575b5f80fd5b60015461012f906301000000900462ffffff1681565b60405162ffffff90911681526020015b60405180910390f35b61015b610156366004610705565b6103ec565b6040516001600160e01b0319909116815260200161013f565b61017c5f5481565b60405190815260200161013f565b61019d61019836600461078c565b610406565b604080516001600160e01b03199094168452602084019290925262ffffff169082015260600161013f565b6101db6101d63660046107e6565b610478565b604080516001600160e01b0319909316835260208301919091520161013f565b61015b610209366004610887565b610493565b61022161021c3660046108de565b610539565b60405161013f919061091d565b61023c6101d6366004610952565b604080516001600160e01b03199093168352600f9190910b60208301520161013f565b61015b6101563660046109d3565b610354604080516101c0810182525f80825260208201819052918101829052606081018290526080810182905260a0810182905260c0810182905260e08101829052610100810182905261012081018290526101408101829052610160810182905261018081018290526101a081019190915250604080516101c0810182526001808252602082018190525f928201839052606082018390526080820183905260a0820183905260c082015260e08101829052610100810182905261012081018290526101408101829052610160810182905261018081018290526101a081019190915290565b60405161013f9190610a2d565b6103887f000000000000000000000000000000000000000000000000000000000000000081565b6040516001600160a01b03909116815260200161013f565b61015b6103ae366004610b4e565b610597565b60015461012f9062ffffff1681565b61017c6103d0366004610b95565b600260209081525f928352604080842090915290825290205481565b5f604051630a85dc2960e01b815260040160405180910390fd5b5f8080336001600160a01b037f000000000000000000000000000000000000000000000000000000000000000016146104525760405163570c108560e11b815260040160405180910390fd5b61045f6020870187610bc3565b50506315d7892d60e21b975f9750879650945050505050565b5f80604051630a85dc2960e01b815260040160405180910390fd5b6001545f9081906104b29062ffffff6301000000820481169116610be9565b604051635275965160e01b81529091506001600160a01b037f000000000000000000000000000000000000000000000000000000000000000016906352759651906105039088908590600401610c22565b5f604051808303815f87803b15801561051a575f80fd5b505af115801561052c573d5f803e3d5ffd5b5050505050949350505050565b6060336001600160a01b037f000000000000000000000000000000000000000000000000000000000000000016146105845760405163570c108560e11b815260040160405180910390fd5b61058e83836105ea565b90505b92915050565b5f6105bd6105ab6060850160408601610cb1565b62ffffff1662ffffff16628000001490565b6105da576040516315b3d69f60e31b815260040160405180910390fd5b50636e4c1aa760e11b9392505050565b60605f80306001600160a01b03168585604051610608929190610cca565b5f604051808303815f865af19150503d805f8114610641576040519150601f19603f3d011682016040523d82523d5f602084013e610646565b606091505b5091509150811561065a5791506105919050565b80515f0361067b576040516314815f4760e31b815260040160405180910390fd5b805160208201fd5b6001600160a01b0381168114610697575f80fd5b50565b5f60a082840312156106aa575f80fd5b50919050565b5f608082840312156106aa575f80fd5b5f8083601f8401126106d0575f80fd5b50813567ffffffffffffffff8111156106e7575f80fd5b6020830191508360208285010111156106fe575f80fd5b9250929050565b5f805f805f610160868803121561071a575f80fd5b853561072581610683565b9450610734876020880161069a565b93506107438760c088016106b0565b925061014086013567ffffffffffffffff81111561075f575f80fd5b61076b888289016106c0565b969995985093965092949392505050565b5f606082840312156106aa575f80fd5b5f805f805f61014086880312156107a1575f80fd5b85356107ac81610683565b94506107bb876020880161069a565b93506107ca8760c0880161077c565b925061012086013567ffffffffffffffff81111561075f575f80fd5b5f805f805f805f6101a0888a0312156107fd575f80fd5b873561080881610683565b96506108178960208a0161069a565b95506108268960c08a016106b0565b94506101408801359350610160880135925061018088013567ffffffffffffffff811115610852575f80fd5b61085e8a828b016106c0565b989b979a50959850939692959293505050565b8035600281900b8114610882575f80fd5b919050565b5f805f80610100858703121561089b575f80fd5b84356108a681610683565b93506108b5866020870161069a565b925060c08501356108c581610683565b91506108d360e08601610871565b905092959194509250565b5f80602083850312156108ef575f80fd5b823567ffffffffffffffff811115610905575f80fd5b610911858286016106c0565b90969095509350505050565b602081525f82518060208401528060208501604085015e5f604082850101526040601f19601f83011684010191505092915050565b5f805f805f806101608789031215610968575f80fd5b863561097381610683565b9550610982886020890161069a565b94506109918860c0890161077c565b9350610120870135925061014087013567ffffffffffffffff8111156109b5575f80fd5b6109c189828a016106c0565b979a9699509497509295939492505050565b5f805f805f8061012087890312156109e9575f80fd5b86356109f481610683565b9550610a03886020890161069a565b945060c0870135935060e0870135925061010087013567ffffffffffffffff8111156109b5575f80fd5b8151151581526101c081016020830151610a4b602084018215159052565b506040830151610a5f604084018215159052565b506060830151610a73606084018215159052565b506080830151610a87608084018215159052565b5060a0830151610a9b60a084018215159052565b5060c0830151610aaf60c084018215159052565b5060e0830151610ac360e084018215159052565b50610100830151610ad961010084018215159052565b50610120830151610aef61012084018215159052565b50610140830151610b0561014084018215159052565b50610160830151610b1b61016084018215159052565b50610180830151610b3161018084018215159052565b506101a0830151610b476101a084018215159052565b5092915050565b5f805f60e08486031215610b60575f80fd5b8335610b6b81610683565b9250610b7a856020860161069a565b915060c0840135610b8a81610683565b809150509250925092565b5f8060408385031215610ba6575f80fd5b823591506020830135610bb881610683565b809150509250929050565b5f60208284031215610bd3575f80fd5b81358015158114610be2575f80fd5b9392505050565b62ffffff828116828216039081111561059157634e487b7160e01b5f52601160045260245ffd5b803562ffffff81168114610882575f80fd5b60c081018335610c3181610683565b6001600160a01b031682526020840135610c4a81610683565b6001600160a01b0316602083015262ffffff610c6860408601610c10565b166040830152610c7a60608501610871565b60020b60608301526080840135610c9081610683565b6001600160a01b0316608083015262ffffff9290921660a090910152919050565b5f60208284031215610cc1575f80fd5b61058e82610c10565b818382375f910190815291905056fea2646970667358221220abcb5deb03d5822b28437b9da1df92f4153af37248a8f8da8c1fd7beaea1059964736f6c634300081a0033","linkReferences":{}},"methodIdentifiers":{"accumulatedPrize(bytes32,address)":"f2e3e3dd","afterAddLiquidity(address,(address,address,uint24,int24,address),(int24,int24,int256,bytes32),int256,int256,bytes)":"9f063efc","afterDonate(address,(address,address,uint24,int24,address),uint256,uint256,bytes)":"e1b4af69","afterInitialize(address,(address,address,uint24,int24,address),uint160,int24)":"6fe7e6eb","afterRemoveLiquidity(address,(address,address,uint24,int24,address),(int24,int24,int256,bytes32),int256,int256,bytes)":"6c2bbe7e","afterSwap(address,(address,address,uint24,int24,address),(bool,int256,uint160),int256,bytes)":"b47b2fb1","beforeAddLiquidity(address,(address,address,uint24,int24,address),(int24,int24,int256,bytes32),bytes)":"259982e5","beforeDonate(address,(address,address,uint24,int24,address),uint256,uint256,bytes)":"b6a8b0fa","beforeInitialize(address,(address,address,uint24,int24,address),uint160)":"dc98354e","beforeRemoveLiquidity(address,(address,address,uint24,int24,address),(int24,int24,int256,bytes32),bytes)":"21d0ee70","beforeSwap(address,(address,address,uint24,int24,address),(bool,int256,uint160),bytes)":"575e24b4","feePercentageForPrize()":"1b77e072","getHookPermissions()":"c4e833ce","initialPoolFee()":"ea401c66","lastPrizeDrawTimestamp()":"2d85836b","poolManager()":"dc4c90d3","unlockCallback(bytes)":"91dd7346"},"id":55}